{
  "contractName": "Wikipedia",
  "abi": [
    {
      "inputs": [],
      "payable": false,
      "stateMutability": "nonpayable",
      "type": "constructor"
    },
    {
      "constant": true,
      "inputs": [
        {
          "internalType": "uint256",
          "name": "",
          "type": "uint256"
        }
      ],
      "name": "articlesById",
      "outputs": [
        {
          "internalType": "string",
          "name": "content",
          "type": "string"
        }
      ],
      "payable": false,
      "stateMutability": "view",
      "type": "function"
    },
    {
      "constant": true,
      "inputs": [
        {
          "internalType": "uint256",
          "name": "",
          "type": "uint256"
        }
      ],
      "name": "ids",
      "outputs": [
        {
          "internalType": "uint256",
          "name": "",
          "type": "uint256"
        }
      ],
      "payable": false,
      "stateMutability": "view",
      "type": "function"
    },
    {
      "constant": true,
      "inputs": [
        {
          "internalType": "uint256",
          "name": "index",
          "type": "uint256"
        }
      ],
      "name": "articleContent",
      "outputs": [
        {
          "internalType": "string",
          "name": "",
          "type": "string"
        }
      ],
      "payable": false,
      "stateMutability": "view",
      "type": "function"
    },
    {
      "constant": true,
      "inputs": [],
      "name": "getAllIds",
      "outputs": [
        {
          "internalType": "uint256[]",
          "name": "",
          "type": "uint256[]"
        }
      ],
      "payable": false,
      "stateMutability": "view",
      "type": "function"
    }
  ],
  "bytecode": "0x608060405234801561001057600080fd5b506000809050600081908060018154018082558091505090600182039060005260206000200160009091929091909150555061004a6100ae565b60405180602001604052806040518060600160405280602b81526020016105d1602b91398152509050806001600084815260200190815260200160002060008201518160000190805190602001906100a39291906100c1565b509050505050610166565b6040518060200160405280606081525090565b828054600181600116156101000203166002900490600052602060002090601f016020900481019282601f1061010257805160ff1916838001178555610130565b82800160010185558215610130579182015b8281111561012f578251825591602001919060010190610114565b5b50905061013d9190610141565b5090565b61016391905b8082111561015f576000816000905550600101610147565b5090565b90565b61045c806101756000396000f3fe608060405234801561001057600080fd5b506004361061004c5760003560e01c806302207107146100515780630ad06280146100f8578063aaa44e5c1461019f578063fac333ac146101fe575b600080fd5b61007d6004803603602081101561006757600080fd5b8101908080359060200190929190505050610240565b6040518080602001828103825283818151815260200191508051906020019080838360005b838110156100bd5780820151818401526020810190506100a2565b50505050905090810190601f1680156100ea5780820380516001836020036101000a031916815260200191505b509250505060405180910390f35b6101246004803603602081101561010e57600080fd5b81019080803590602001909291905050506102f8565b6040518080602001828103825283818151815260200191508051906020019080838360005b83811015610164578082015181840152602081019050610149565b50505050905090810190601f1680156101915780820380516001836020036101000a031916815260200191505b509250505060405180910390f35b6101a76103ae565b6040518080602001828103825283818151815260200191508051906020019060200280838360005b838110156101ea5780820151818401526020810190506101cf565b505050509050019250505060405180910390f35b61022a6004803603602081101561021457600080fd5b8101908080359060200190929190505050610406565b6040518082815260200191505060405180910390f35b6060600160008381526020019081526020016000206000018054600181600116156101000203166002900480601f0160208091040260200160405190810160405280929190818152602001828054600181600116156101000203166002900480156102ec5780601f106102c1576101008083540402835291602001916102ec565b820191906000526020600020905b8154815290600101906020018083116102cf57829003601f168201915b50505050509050919050565b6001602052806000526040600020600091509050806000018054600181600116156101000203166002900480601f0160208091040260200160405190810160405280929190818152602001828054600181600116156101000203166002900480156103a45780601f10610379576101008083540402835291602001916103a4565b820191906000526020600020905b81548152906001019060200180831161038757829003601f168201915b5050505050905081565b606060008054806020026020016040519081016040528092919081815260200182805480156103fc57602002820191906000526020600020905b8154815260200190600101908083116103e8575b5050505050905090565b6000818154811061041357fe5b90600052602060002001600091509050548156fea265627a7a72315820aca1f65042e2d292000522a4d29c36f8b7eab85b2ff86be55f63a29a2177030864736f6c634300051000325468697320697320796f75722066697273742061727469636c6520696e20796f757220636f6e7472616374",
  "source": "pragma solidity ^0.5.0;\n\ncontract Wikipedia {\n  struct Article {\n    string content;\n  }\n\n  uint[] public ids;\n  mapping (uint => Article) public articlesById;\n\n  constructor() public {\n    uint index = 0;\n    ids.push(index);\n    Article memory newArticle = Article(\"This is your first article in your contract\");\n    articlesById[index] = newArticle;\n  }\n\n  function articleContent(uint index) public view returns (string memory) {\n    return articlesById[index].content;\n  }\n\n  function getAllIds() public view returns (uint[] memory) {\n    return ids;\n  }\n\n  // Write your code here.\n}\n",
  "sourcePath": "/home/zahrof/Documents/Master2/DAAR/Projet2/decentralized-wikipedia/contracts/Wikipedia.sol",
  "compiler": {
    "name": "solc",
    "version": "0.5.16+commit.9c3226ce.Emscripten.clang"
  },
  "schemaVersion": "3.3.2",
  "updatedAt": "2020-11-28T00:02:41.071Z",
  "devdoc": {
    "methods": {}
  },
  "userdoc": {
    "methods": {}
  }
}